:020000040800F2
:1000000000280020D9110008D50F0008DB0F0008D8
:10001000E10F0008E70F0008ED0F000800000000E6
:10002000000000000000000000000000F30F0008C6
:10003000FF0F0008000000000B1000081710000858
:1000400021120008211200082112000821120008C4
:1000500021120008211200082112000821120008B4
:1000600021120008211200082112000821120008A4
:100070002112000821120008211200082112000894
:100080002112000821120008211200082112000884
:100090002112000821120008211200082112000874
:1000A0002112000821120008211200082112000864
:1000B000251000082112000800000000211200088D
:1000C00021120008000000000000000021120008BA
:1000D00000000000211200082112000800000000AA
:1000E000211200082112000821120008000000005F
:1000F0000000000000000000000000000000000000
:0C01000000000000000000005FF808F1A3
:10010C0010B5054C237833B9044B13B10448AFF345
:10011C0000800123237010BD2C0000200000000083
:10012C004828000808B5034B1BB103490348AFF33B
:10013C00008008BD000000003000002048280008A6
:10014C0080B582B000AF78607B68092B00F28081AB
:10015C0001A252F823F000BF8D010008D501000860
:10016C001D02000865020008AD020008F502000837
:10017C003D03000885030008CD03000815040008A2
:10018C0000220121B44801F048FB00220221B248B0
:10019C0001F043FB00220421AF4801F03EFB00229A
:1001AC000821AD4801F039FB00221021AA4801F0CA
:1001BC0034FB00222021A84801F02FFB0122402112
:1001CC00A54801F02AFB43E101220121A24801F0DC
:1001DC0024FB00220221A04801F01FFB0022042175
:1001EC009D4801F01AFB012208219B4801F015FBE8
:1001FC0001221021984801F010FB01222021964881
:10020C0001F00BFB01224021934801F006FB1FE19A
:10021C0000220121904801F000FB002202218E48AF
:10022C0001F0FBFA012204218B4801F0F6FA0022BE
:10023C000821894801F0F1FA00221021864801F0CA
:10024C00ECFA01222021844801F0E7FA0022402137
:10025C00814801F0E2FAFBE0002201217E4801F026
:10026C00DCFA002202217C4801F0D7FA002204219A
:10027C00794801F0D2FA00220821774801F0CDFA32
:10028C0001221021744801F0C8FA01222021724881
:10029C0001F0C3FA002240216F4801F0BEFAD7E00A
:1002AC00012201216C4801F0B8FA002202216A48AF
:1002BC0001F0B3FA00220421674801F0AEFA0122E2
:1002CC000821654801F0A9FA01221021624801F0C9
:1002DC00A4FA00222021604801F09FFA002240215C
:1002EC005D4801F09AFAB3E0002201215A4801F06E
:1002FC0094FA01220221584801F08FFA00220421BD
:10030C00554801F08AFA00220821534801F085FA79
:10031C0001221021504801F080FA002220214E4881
:10032C0001F07BFA002240214B4801F076FA8FE075
:10033C0000220121484801F070FA012202214648AE
:10034C0001F06BFA00220421434801F066FA002206
:10035C000821414801F061FA002210213E4801F0C9
:10036C005CFA002220213C4801F057FA002240217F
:10037C00394801F052FA6BE000220121364801F0B5
:10038C004CFA00220221344801F047FA00220421E1
:10039C00314801F042FA012208212F4801F03DFAC0
:1003AC00012210212C4801F038FA012220212A4880
:1003BC0001F033FA01224021274801F02EFA47E0E0
:1003CC0000220121244801F028FA002202212248AF
:1003DC0001F023FA002204211F4801F01EFA00222A
:1003EC0008211D4801F019FA002210211A4801F0C9
:1003FC0014FA00222021184801F00FFA00224021A3
:10040C00154801F00AFA23E001221021124801F0EC
:10041C0004FA00220121104801F0FFF90022022108
:10042C000D4801F0FAF9002204210B4801F0F5F90E
:10043C0000220821084801F0F0F90022202106488A
:10044C0001F0EBF900224021034801F0E6F900BF6E
:10045C0000BF0837BD4680BD000C014080B582B09E
:10046C0000AF7860554B1B68032B00F28B8001A208
:10047C0052F823F091040008CF0400080D05000881
:10048C004B0500084D4B1B684D4A52F8233018465B
:10049C00FFF756FE002240214A4801F0BEF9012226
:1004AC008021484801F0B9F901224FF48071454888
:1004BC0001F0B3F901224FF40071424801F0ADF99B
:1004CC0077E03E4B1B683E4A52F823301846FFF744
:1004DC0037FE012240213B4801F09FF90022802188
:1004EC00384801F09AF901224FF48071354801F037
:1004FC0094F901224FF40071324801F08EF958E062
:10050C002E4B1B682E4A52F823301846FFF718FE64
:10051C00012240212B4801F080F901228021294839
:10052C0001F07BF900224FF48071264801F075F937
:10053C0001224FF40071234801F06FF939E01F4B91
:10054C001B681F4A52F823301846FFF7F9FD0122A9
:10055C0040211C4801F061F901228021194801F069
:10056C005CF901224FF48071164801F056F9002213
:10057C004FF40071134801F050F9104B4FF0FF325B
:10058C001A6016E0012240210E4801F046F90122C2
:10059C0080210C4801F041F901224FF48071094887
:1005AC0001F03BF901224FF40071064801F035F9D6
:1005BC0000BF00BF0837BD4680BD00BF60000020F3
:1005CC00900000200008014080B500AF01220121FD
:1005DC00074801F022F900220221054801F01DF91B
:1005EC0000220421024801F018F900BF80BD00BFB1
:1005FC000008014080B500AF00220121074801F03E
:10060C000CF901220221054801F007F9002204210E
:10061C00024801F002F900BF80BD00BF0008014094
:10062C0080B500AF00220121074801F0F6F8002246
:10063C000221054801F0F1F801220421024801F0E1
:10064C00ECF800BF80BD00BF0008014080B500AFD2
:10065C00364B1B68364A93420BD0354A93425CDCCE
:10066C00032B41D0032B58DC012B0BD0022B22D0B7
:10067C0053E02E4B01221A602E4B1B68184600F0DB
:10068C00EFFC51E0FFF7A0FF2B4B1B68012B46D171
:10069C00264B02221A60294B1B68184600F0E0FC1E
:1006AC00264B1B68264A82FB03129210DB17D31AC7
:1006BC00244A136033E0FFF79DFF1F4B1B68012B8F
:1006CC002FD11A4B03221A601F4B1B68184600F0DF
:1006DC00C7FC1D4B1B681A4A82FB03129210DB17D6
:1006EC00D31A184A13601CE0FFF79AFF124B1B68D1
:1006FC00012B18D10D4B01221A600E4B1B681846AA
:10070C0000F0AEFC0B4B1B680D4A82FB03129210DF
:10071C00DB17D31A0B4A136005E000BF04E000BFDF
:10072C0002E000BF00E000BF00BF80BD0000002061
:10073C00225B60010C0000206C00002014000020E3
:10074C0067666666100000201C00002080B500AFB4
:10075C0001220821074801F060F800221021054809
:10076C0001F05BF800222021024801F056F800BF8E
:10077C0080BD00BF0008014080B500AF00220821F9
:10078C00074801F04AF801221021054801F045F80C
:10079C0000222021024801F040F800BF80BD00BFBC
:1007AC000008014080B500AF00220821074801F085
:1007BC0034F800221021054801F02FF801222021E5
:1007CC00024801F02AF800BF80BD00BF00080140BC
:1007DC0080B500AF364B1B68364A93420BD0354A76
:1007EC0093425CDC032B41D0032B58DC012B0BD048
:1007FC00022B22D053E02E4B02221A602E4B1B6888
:10080C00184600F041FC51E0FFF7A0FF2B4B1B6892
:10081C00012B46D1264B02221A60274B1B68184627
:10082C0000F032FC244B1B68254A82FB0312921009
:10083C00DB17D31A234A136033E0FFF79DFF1F4BDE
:10084C001B68012B2FD11A4B03221A601E4B1B68FD
:10085C00184600F019FC1C4B1B68194A82FB03124A
:10086C009210DB17D31A174A13601CE0FFF79AFF9C
:10087C00124B1B68012B18D10D4B01221A60134B24
:10088C001B68184600F000FC104B1B680C4A82FBDE
:10089C0003129210DB17D31A0A4A136005E000BF4B
:1008AC0004E000BF02E000BF00E000BF00BF80BD5D
:1008BC0004000020225B6001140000207400002062
:1008CC0067666666180000201C0000200C000020E3
:1008DC0080B582B000AF964B1B68964A934239D0D4
:1008EC00944A934200F31681642B0DD0642B00F3D1
:1008FC0011810D2B00F0C7800D2B00F30B810B2BFE
:10090C0032D00C2B78D005E18B4B1B68012B0CD112
:10091C008A4B1B68013B894A1360894B1B68013B5E
:10092C00874A13600A2000F087FB864B1B68012B5B
:10093C0040F0F280834B00221A60834B63221A60D2
:10094C00824B63221A607A4B0B221A60804B1B6815
:10095C007B60E1E07C4B774A1A607C4B754A1A60ED
:10096C00734B64221A60DEE0FFF72EFEFFF7EEFEFB
:10097C007B6842F2AC62934201DD00237B607A68B3
:10098C00744B83FB02135911D317CB1A642101FB4F
:10099C0003F3D31A6A4A1360684B01221A60694B3D
:1009AC001B68012B08D1674B00221A606A4B1B682D
:1009BC007B605F4B0C221A60624B5B68012B05D18C
:1009CC00604B00225A607B6864337B605D4B9B6894
:1009DC00012B05D15B4B00225A607B68643B7B602A
:1009EC00584BDB68012B40F09980564B00225A6023
:1009FC00574A7B68136091E0FFF7FCFDFFF7BCFEE4
:100A0C007B6842F2AC62934201DD00237B607A6822
:100A1C00504B83FB02135911D317CB1A642101FBE2
:100A2C0003F3D31A464A1360444B01221A60454B18
:100A3C001B68012B08D1434B00221A60474B1B68E3
:100A4C007B603B4B0D221A603E4B5B68012B05D142
:100A5C003C4B00225A607B6864337B60394B9B684B
:100A6C00012B05D1374B00225A607B68643B7B60BD
:100A7C00344BDB68012B53D1324B00225A60364A7F
:100A8C007B6813604CE0FFF7CBFDFFF78BFE7B68B8
:100A9C0042F2AC62934201DD00237B607A682D4BFD
:100AAC0083FB02135911D317CB1A642101FB03F3F7
:100ABC00D31A234A1360214B01221A60214B1B6865
:100ACC00012B08D11F4B00221A60214B1B687B6045
:100ADC00174B184A1A601B4B5B68012B05D1194B3D
:100AEC0000225A607B6864337B60164B9B68012B39
:100AFC0005D1144B00225A607B68643B7B60114B20
:100B0C00DB68012B0ED10F4B00225A60134A7B6815
:100B1C00136007E000BF06E000BF04E000BF02E086
:100B2C0000BF00E000BF00BF0837BD4680BD00BF5E
:100B3C0008000020225B60016400002010000020EF
:100B4C00180000207C000020000000200400002081
:100B5C000C0000201F85EB51140000201C0000200D
:100B6C0080B483B000AF0346FB71FB79044A0121CA
:100B7C0042F8231000BF0C37BD4680BC704700BF45
:100B8C007C00002090B583B000AF0023FB7183E0A4
:100B9C00FA79FB794549895C454AD154FA79FB7954
:100BAC004449895C414AD154FB79032B36D801A2C4
:100BBC0052F823F0D10B0008E70B0008FD0B0008DE
:100BCC00130C0008FC794FF480513B4800F00EFEEA
:100BDC0003461A46374B1A5525E0FC794FF4005161
:100BEC00354800F003FE03461A46324B1A551AE0FC
:100BFC00FC794FF40041304800F0F8FD03461A46EA
:100C0C002C4B1A550FE0FC794FF480412A4800F028
:100C1C00EDFD03461A46274B1A5504E0FB79254A8D
:100C2C000121D15400BFFB79214AD25CFB791F49C9
:100C3C00CB5C9A422DD1FB791C4AD25CFB791D49C5
:100C4C00CB5C9A4225D1FB791C4AD25CFB791949C1
:100C5C00CB5C9A4214D0FA79FB791649895C174A15
:100C6C00D154FB79154AD35C002B12D1FB79144A71
:100C7C00642122F81310FB791846FFF771FF08E086
:100C8C00FB790F4A32F81320013A91B20C4A22F840
:100C9C001310FB790133FB71FB79032B7FF678AFD3
:100CAC0000BF00BF0C37BD4690BD00BF50000020F8
:100CBC004C00002054000020000801404800002097
:100CCC005800002080B500AF00F0A6FA00F016F82E
:100CDC0000F050F800F09AF8074801F0EFF9012005
:100CEC0000F0AAF9FFF7B2FCFFF772FDFFF7F0FD79
:100CFC00FFF748FFF6E700BFA000002080B590B0DA
:100D0C0000AF07F1180328220021184601F08EFDD0
:100D1C003B1D00221A605A609A60DA601A61022345
:100D2C00BB610123BB621023FB6200237B6307F1D1
:100D3C001803184600F08AFD0346002B01D000F082
:100D4C00E7F80F237B600023BB600023FB600023CC
:100D5C003B6100237B613B1D0021184600F0F6FF30
:100D6C000346002B01D000F0D3F800BF4037BD463E
:100D7C0080BD000080B586B000AF07F108030022EB
:100D8C001A605A609A60DA603B4600221A605A6018
:100D9C001D4B4FF080421A601B4B41F63F725A605C
:100DAC00194B00229A60184B0922DA60164B00226C
:100DBC001A61154B80229A61134801F02FF90346F2
:100DCC00002B01D000F0A4F84FF48053BB6007F166
:100DDC00080319460C4801F0C5FA0346002B01D054
:100DEC0000F096F800233B6000237B603B461946DD
:100DFC00054801F08DFC0346002B01D000F088F86B
:100E0C0000BF1837BD4680BDA000002080B586B05D
:100E1C0000AF07F1080300221A605A609A60DA608A
:100E2C00284B9B69274A43F004039361254B9B692C
:100E3C0003F004037B607B68224B9B69214A43F0DF
:100E4C00080393611F4B9B6903F008033B603B68ED
:100E5C00002240F2FF311C4800F0DFFC00227F2111
:100E6C001A4800F0DAFC40F2FF33BB600123FB6050
:100E7C0000233B6102237B6107F1080319461248EA
:100E8C0000F03AFB7F23BB600123FB6000233B6136
:100E9C0002237B6107F1080319460C4800F02CFB78
:100EAC004FF47043BB600023FB6001233B6107F1EF
:100EBC0008031946044800F01FFB00BF1837BD4655
:100ECC0080BD00BF0010024000080140000C014032
:100EDC0080B582B000AF78607B681B68B3F1804F3F
:100EEC000FD100F0E5F800F0FDF800F015F900F076
:100EFC002DF9064B1B685A1C04490A601846FFF76B
:100F0C00ADFA00BF0837BD4680BD00BF60000020B1
:100F1C0080B400AF72B600BFFEE7000080B485B0AD
:100F2C0000AF154B9B69144A43F001039361124BBC
:100F3C009B6903F00103BB60BB680F4BDB690E4A76
:100F4C0043F08053D3610C4BDB6903F080537B601F
:100F5C007B680A4B5B68FB60FB6823F0E063FB601B
:100F6C00FB6843F08063FB60044AFB68536000BF7E
:100F7C001437BD4680BC7047001002400000014091
:100F8C0080B584B000AF78607B681B68B3F1804F8C
:100F9C0013D10C4BDB690B4A43F00103D361094BB2
:100FAC00DB6903F00103FB60FB68002200211C20BD
:100FBC0000F06BFA1C2000F084FA00BF1037BD461D
:100FCC0080BD00BF0010024080B400AFFEE780B4CB
:100FDC0000AFFEE780B400AFFEE780B400AFFEE7E1
:100FEC0080B400AFFEE780B400AF00BFBD4680BC4C
:100FFC00704780B400AF00BFBD4680BC704780B462
:10100C0000AF00BFBD4680BC704780B500AF00F09C
:10101C0049F900BF80BD000080B500AF024801F067
:10102C0099F800BF80BD00BFA000002080B400AFC5
:10103C0000BFBD4680BC704780B483B000AF786001
:10104C00054A7B681360054B00221A6000BF0C3701
:10105C00BD4680BC704700BF6800002064000020C3
:10106C0080B483B000AF7860054A7B681360054B91
:10107C0000221A6000BF0C37BD4680BC704700BF11
:10108C00700000206C00002080B483B000AF78604A
:10109C00054A7B681360054B00221A6000BF0C37B1
:1010AC00BD4680BC704700BF780000207400002053
:1010BC0080B400AF094B1B68002B0BDD074B1B6882
:1010CC00013B064A1360054B1B68002B02DC044BEA
:1010DC0001221A6000BFBD4680BC7047680000202A
:1010EC006400002080B400AF094B1B68002B0BDDA3
:1010FC00074B1B68013B064A1360054B1B68002B12
:10110C0002DC044B01221A6000BFBD4680BC704754
:10111C00700000206C00002080B400AF094B1B68ED
:10112C00002B0BDD074B1B68013B064A1360054B7C
:10113C001B68002B02DC044B01221A6000BFBD4669
:10114C0080BC7047780000207400002080B400AF91
:10115C001A4B1B681A4A82FB03129210DB17D31A24
:10116C00184A1360154B1968154B83FB01239A1011
:10117C00CB17D21A13469B0013445B00CA1A114BAF
:10118C005A60114B1B680E4A82FB03129210DB173C
:10119C00D31A0C4A93600C4B1968094B83FB01233F
:1011AC009A10CB17D21A13469B0013445B00CA1A31
:1011BC00044BDA6000BFBD4680BC704710000020B5
:1011CC006766666690000020180000200C480D49E8
:1011DC000D4A002302E0D458C4500433C4188C4286
:1011EC00F9D30A4A0A4C002301E013600432A242EC
:1011FC00FBD3FFF71BFF01F0F5FAFFF763FD704718
:10120C00000000202C000020882800082C00002062
:10121C00F0000020FEE7000080B500AF084B1B6813
:10122C00074A43F010031360032000F023F90F204A
:10123C0000F008F8FFF772FE0023184680BD00BFCF
:10124C000020024080B582B000AF7860124B1A6863
:10125C00124B1B7819464FF47A73B3FBF1F3B2FBC4
:10126C00F3F3184600F03BF90346002B01D00123A1
:10127C000EE07B680F2B0AD8002279684FF0FF3004
:10128C0000F003F9064A7B681360002300E0012399
:10129C0018460837BD4680BD2000002028000020DD
:1012AC002400002080B400AF054B1B781A46054B78
:1012BC001B681344034A136000BFBD4680BC7047D3
:1012CC0028000020EC00002080B400AF024B1B680B
:1012DC001846BD4680BC7047EC00002080B485B039
:1012EC0000AF78607B6803F00703FB600C4BDB6896
:1012FC00BB60BA684FF6FF031340BB60FB681A0271
:10130C00BB68134343F0BF6343F40033BB60044A30
:10131C00BB68D36000BF1437BD4680BC704700BFAC
:10132C0000ED00E080B400AF044BDB681B0A03F057
:10133C0007031846BD4680BC704700BF00ED00E0B7
:10134C0080B483B000AF0346FB7197F90730002BD4
:10135C000BDBFB7903F01F02064997F907305B0999
:10136C00012000FA02F241F8232000BF0C37BD46E1
:10137C0080BC704700E100E080B483B000AF03464E
:10138C003960FB7197F90730002B0ADB3B68DAB246
:10139C000C4997F907301201D2B20B4483F80023A1
:1013AC000AE03B68DAB20849FB7903F00F03043B0F
:1013BC001201D2B20B441A7600BF0C37BD4680BC6A
:1013CC00704700BF00E100E000ED00E080B489B0A0
:1013DC0000AFF860B9607A60FB6803F00703FB614B
:1013EC00FB69C3F10703042B28BF0423BB61FB6912
:1013FC000433062B02D9FB69033B00E000237B611D
:10140C004FF0FF32BB6902FA03F3DA43BB681A40B0
:10141C007B699A404FF0FF317B6901FA03F3D943A2
:10142C007B680B40134318462437BD4680BC70477D
:10143C0080B582B000AF78607B68013BB3F1807FF0
:10144C0001D301230FE00A4A7B68013B53600F2153
:10145C004FF0FF30FFF790FF054B00229A60044BD2
:10146C0007221A60002318460837BD4680BD00BF0E
:10147C0010E000E080B582B000AF78607868FFF7CC
:10148C002DFF00BF0837BD4680BD80B586B000AFCC
:10149C000346B9607A60FB7300237B61FFF742FF60
:1014AC0078617A68B9687869FFF790FF024697F916
:1014BC000F3011461846FFF75FFF00BF1837BD46C7
:1014CC0080BD80B582B000AF0346FB7197F9073041
:1014DC001846FFF735FF00BF0837BD4680BD80B505
:1014EC0082B000AF78607868FFF7A2FF0346184619
:1014FC000837BD4680BD000080B48BB000AF78606B
:10150C00396000237B6200233B6248E101227B6A45
:10151C0002FA03F3FB613B681B68FA691340BB6179
:10152C00BA69FB699A4240F037813B685B68A34A11
:10153C0093425ED0A14A934275D8A14A934258D0A7
:10154C009F4A93426FD89F4A934252D09D4A9342EE
:10155C0069D89D4A93424CD09B4A934263D89B4A8C
:10156C00934246D0994A93425DD8122B2AD8122B1B
:10157C0059D801A252F823F0FF150008D91500081C
:10158C00EB1500082D16000833160008331600085A
:10159C0033160008331600083316000833160008FB
:1015AC0033160008331600083316000833160008EB
:1015BC00331600083316000833160008E11500082E
:1015CC00F5150008824A934213D02CE03B68DB6887
:1015DC003B6229E03B68DB6804333B6224E03B68F8
:1015EC00DB6808333B621FE03B68DB680C333B6213
:1015FC001AE03B689B68002B02D104233B6213E08A
:10160C003B689B68012B05D108233B627B68FA6918
:10161C001A6109E008233B627B68FA695A6103E0AE
:10162C0000233B6200E000BFBB69FF2B01D87B6845
:10163C0001E07B6804337B61BB69FF2B02D87B6ABA
:10164C009B0002E07B6A083B9B003B617B691A684C
:10165C000F213B6901FA03F3DB431A40396A3B69FA
:10166C0001FA03F31A437B691A603B685B6803F069
:10167C008053002B00F09080564B9B69554A43F0E9
:10168C0001039361534B9B6903F00103BB60BB687F
:10169C00514A7B6A9B08023352F82330FB607B6A09
:1016AC0003F003039B000F2202FA03F3DB43FA68F7
:1016BC001340FB607B68494A93420DD07B68484AD3
:1016CC00934207D07B68474A934201D1022304E03E
:1016DC00032302E0012300E000237A6A02F00302F4
:1016EC0092009340FA681343FB603B497B6A9B086A
:1016FC000233FA6841F823203B685B6803F48033BB
:10170C00002B06D0384B1A683749BB6913430B6062
:10171C0006E0354B1A68BB69DB43334913400B6059
:10172C003B685B6803F40033002B06D02E4B5A68E1
:10173C002D49BB6913434B6006E02B4B5A68BB69C0
:10174C00DB43294913404B603B685B6803F480130F
:10175C00002B06D0244B9A682349BB6913438B603A
:10176C0006E0214B9A68BB69DB431F4913408B6031
:10177C003B685B6803F40013002B06D01A4BDA6845
:10178C001949BB691343CB6006E0174BDA68BB6998
:10179C00DB4315491340CB607B6A01337B623B68AA
:1017AC001A687B6A22FA03F3002B7FF4AFAE00BFFA
:1017BC0000BF2C37BD4680BC704700BF0000321004
:1017CC000000311000002210000021100000121047
:1017DC000000111000100240000001400008014000
:1017EC00000C0140001001400004014080B485B0A1
:1017FC0000AF78600B467B807B689A687B881340CF
:10180C00002B02D00123FB7301E00023FB73FB7B55
:10181C0018461437BD4680BC704780B483B000AF07
:10182C0078600B467B8013467B707B78002B03D053
:10183C007A887B681A6103E07B881A047B681A61DA
:10184C0000BF0C37BD4680BC7047000080B586B029
:10185C0000AF78607B68002B01D101236CE27B68C0
:10186C001B6803F00103002B00F08780924B5B6830
:10187C0003F00C03042B0CD08F4B5B6803F00C03B0
:10188C00082B12D18C4B5B6803F48033B3F5803F8B
:10189C000BD1894B1B6803F40033002B6CD07B6895
:1018AC005B68002B68D1012346E27B685B68B3F56B
:1018BC00803F06D1804B1B687F4A43F48033136012
:1018CC002EE07B685B68002B0CD17B4B1B687A4A43
:1018DC0023F480331360784B1B68774A23F48023FE
:1018EC0013601DE07B685B68B3F5A02F0CD1724BC5
:1018FC001B68714A43F4802313606F4B1B686E4A5C
:10190C0043F4803313600BE06B4B1B686A4A23F47F
:10191C0080331360684B1B68674A23F48023136081
:10192C007B685B68002B13D0FFF7CEFC386108E0B6
:10193C00FFF7CAFC02463B69D31A642B01D9032377
:10194C00FAE15D4B1B6803F40033002BF0D014E07C
:10195C00FFF7BAFC386108E0FFF7B6FC02463B69BA
:10196C00D31A642B01D90323E6E1534B1B6803F410
:10197C000033002BF0D100E000BF7B681B6803F044
:10198C000203002B63D04C4B5B6803F00C03002B61
:10199C000BD0494B5B6803F00C03082B1CD1464B56
:1019AC005B6803F48033002B16D1434B1B6803F0A8
:1019BC000203002B05D07B681B69012B01D001238E
:1019CC00BAE13D4B1B6823F0F8027B685B69DB00D6
:1019DC00394913430B603AE07B681B69002B20D01C
:1019EC00364B01221A60FFF76FFC386108E0FFF7F5
:1019FC006BFC02463B69D31A022B01D903239BE1F2
:101A0C002D4B1B6803F00203002BF0D02A4B1B68F4
:101A1C0023F0F8027B685B69DB00274913430B60FA
:101A2C0015E0264B00221A60FFF74EFC386108E0E7
:101A3C00FFF74AFC02463B69D31A022B01D9032358
:101A4C007AE11D4B1B6803F00203002BF0D17B687D
:101A5C001B6803F00803002B3AD07B689B69002BB2
:101A6C0019D0174B01221A60FFF72EFC386108E0E1
:101A7C00FFF72AFC02463B69D31A022B01D9032338
:101A8C005AE10D4B5B6A03F00203002BF0D00120EE
:101A9C0000F0A6FA1CE00A4B00221A60FFF714FCB7
:101AAC0038610FE0FFF710FC02463B69D31A022B9A
:101ABC0008D9032340E100BF00100240000042425D
:101ACC00800442429E4B5B6A03F00203002BE9D177
:101ADC007B681B6803F00403002B00F0A680002336
:101AEC00FB75974BDB6903F08053002B0DD1944BA6
:101AFC00DB69934A43F08053D361914BDB6903F06C
:101B0C008053BB60BB680123FB758E4B1B6803F4D1
:101B1C008073002B18D18B4B1B688A4A43F480735B
:101B2C001360FFF7D1FB386108E0FFF7CDFB0246ED
:101B3C003B69D31A642B01D90323FDE0814B1B684D
:101B4C0003F48073002BF0D07B68DB68012B06D18B
:101B5C007B4B1B6A7A4A43F0010313622DE07B68CE
:101B6C00DB68002B0CD1764B1B6A754A23F0010302
:101B7C001362734B1B6A724A23F0040313621CE05A
:101B8C007B68DB68052B0CD16D4B1B6A6C4A43F0F0
:101B9C00040313626A4B1B6A694A43F00103136224
:101BAC000BE0674B1B6A664A23F001031362644B1C
:101BBC001B6A634A23F0040313627B68DB68002B07
:101BCC0015D0FFF781FB38610AE0FFF77DFB024679
:101BDC003B69D31A41F28832934201D90323ABE01B
:101BEC00574B1B6A03F00203002BEED014E0FFF7F7
:101BFC006BFB38610AE0FFF767FB02463B69D31ABF
:101C0C0041F28832934201D9032395E04C4B1B6A75
:101C1C0003F00203002BEED1FB7D012B05D1484BC9
:101C2C00DB69474A23F08053D3617B68DB69002B67
:101C3C0000F08180424B5B6803F00C03082B61D0F1
:101C4C007B68DB69022B46D13F4B00221A60FFF701
:101C5C003BFB386108E0FFF737FB02463B69D31AC0
:101C6C00022B01D9032367E0354B1B6803F000738B
:101C7C00002BF0D17B681B6AB3F5803F08D1304B49
:101C8C005B6823F400327B689B682D4913434B60DF
:101C9C002B4B5B6823F474127B68196A7B685B6A54
:101CAC000B43274913434B60274B01221A60FFF764
:101CBC000BFB386108E0FFF707FB02463B69D31AC0
:101CCC00022B01D9032337E01D4B1B6803F0007373
:101CDC00002BF0D02FE01C4B00221A60FFF7F4FA17
:101CEC00386108E0FFF7F0FA02463B69D31A022B81
:101CFC0001D9032320E0124B1B6803F00073002B67
:101D0C00F0D118E07B68DB69012B01D1012313E0D2
:101D1C000B4B5B68FB60FB6803F480327B681B6ACF
:101D2C009A4206D1FB6803F470127B685B6A9A4294
:101D3C0001D0012300E0002318461837BD4680BDB2
:101D4C0000100240007000406000424280B584B038
:101D5C0000AF786039607B68002B01D10123D0E0A3
:101D6C006A4B1B6803F007033A689A4210D9674B19
:101D7C001B6823F0070265493B6813430B60634BF8
:101D8C001B6803F007033A689A4201D00123B8E0BC
:101D9C007B681B6803F00203002B20D07B681B6858
:101DAC0003F00403002B05D0594B5B68584A43F4ED
:101DBC00E06353607B681B6803F00803002B05D0BD
:101DCC00534B5B68524A43F460535360504B5B680F
:101DDC0023F0F0027B689B684D4913434B607B6892
:101DEC001B6803F00103002B40D07B685B68012B60
:101DFC0007D1474B1B6803F40033002B15D101238B
:101E0C007FE07B685B68022B07D1414B1B6803F0BA
:101E1C000073002B09D1012373E03D4B1B6803F0C9
:101E2C000203002B01D101236BE0394B5B6823F0DB
:101E3C0003027B685B68364913434B60FFF744FA37
:101E4C00F8600AE0FFF740FA0246FB68D31A41F249
:101E5C008832934201D9032353E02D4B5B6803F086
:101E6C000C027B685B689B009A42EBD1274B1B688A
:101E7C0003F007033A689A4210D2244B1B6823F0F4
:101E8C00070222493B6813430B60204B1B6803F08D
:101E9C0007033A689A4201D0012332E07B681B6841
:101EAC0003F00403002B08D0194B5B6823F4E062A9
:101EBC007B68DB68164913434B607B681B6803F037
:101ECC000803002B09D0124B5B6823F460527B682B
:101EDC001B69DB000E4913434B6000F021F80246EE
:101EEC000B4B5B681B0903F00F030A49CB5C22FA0E
:101EFC0003F3094A1360094B1B681846FFF7A2F954
:101F0C00002318461037BD4680BD00BF002002409C
:101F1C00001002407028000820000020240000203F
:101F2C0090B48AB000AF2A4B3C1D0FCB84E80F0055
:101F3C0040F201233B800023FB610023BB610023A3
:101F4C007B6200237B6100233B62224B5B68FB615D
:101F5C00FB6903F00C03042B02D0082B03D02DE0FB
:101F6C001D4B3B622DE0FB699B0C03F00F0307F14B
:101F7C002802134413F8243C7B61FB6903F480337F
:101F8C00002B13D0134B5B685B0C03F0010307F1C0
:101F9C002802134413F8283CBB617B690E4A02FBF0
:101FAC0003F2BB69B2FBF3F37B6204E07B690B4A7F
:101FBC0002FB03F37B627B6A3B6202E0064B3B62F3
:101FCC0000BF3B6A18462837BD4690BC704700BF1F
:101FDC00602800080010024000127A0000093D0041
:101FEC0080B485B000AF78600A4B1B680A4AA2FB2C
:101FFC0003235B0A7A6802FB03F3FB6000BFFB68F8
:10200C005A1EFA60002BF9D100BF00BF1437BD4631
:10201C0080BC704720000020D34D621080B582B088
:10202C0000AF78607B68002B01D1012341E07B6815
:10203C0093F83D30DBB2002B06D17B68002283F88D
:10204C003C207868FEF79CFF7B68022283F83D20D9
:10205C007B681A687B6804331946104600F06AFAEC
:10206C007B68012283F846207B68012283F83E209E
:10207C007B68012283F83F207B68012283F8402093
:10208C007B68012283F841207B68012283F842207F
:10209C007B68012283F843207B68012283F844206B
:1020AC007B68012283F845207B68012283F83D2060
:1020BC00002318460837BD4680BD000080B485B0AB
:1020CC0000AF78607B6893F83D30DBB2012B01D018
:1020DC00012335E07B68022283F83D207B681B6876
:1020EC00DA687B681B6842F00102DA607B681B6867
:1020FC00164A934209D07B681B68B3F1804F04D019
:10210C007B681B68124A934211D17B681B689B68E1
:10211C0003F00703FB60FB68062B10D07B681B6881
:10212C001A687B681B6842F001021A6007E07B6842
:10213C001B681A687B681B6842F001021A60002356
:10214C0018461437BD4680BC704700BF002C0140B8
:10215C000004004080B582B000AF78607B681B68DB
:10216C001B6903F00203022B22D17B681B68DB681E
:10217C0003F00203022B1BD17B681B686FF0020279
:10218C001A617B6801221A777B681B689B6903F0D4
:10219C000303002B03D0786800F0B1F905E07868F0
:1021AC0000F0A4F9786800F0B3F97B6800221A7784
:1021BC007B681B681B6903F00403042B22D17B682A
:1021CC001B68DB6803F00403042B1BD17B681B68C2
:1021DC006FF004021A617B6802221A777B681B6815
:1021EC009B6903F44073002B03D0786800F087F9E7
:1021FC0005E0786800F07AF9786800F089F97B6876
:10220C0000221A777B681B681B6903F00803082BF4
:10221C0022D17B681B68DB6803F00803082B1BD1F9
:10222C007B681B686FF008021A617B6804221A77BE
:10223C007B681B68DB6903F00303002B03D0786811
:10224C0000F05DF905E0786800F050F9786800F06E
:10225C005FF97B6800221A777B681B681B6903F0A7
:10226C001003102B22D17B681B68DB6803F0100372
:10227C00102B1BD17B681B686FF010021A617B68F6
:10228C0008221A777B681B68DB6903F44073002B08
:10229C0003D0786800F033F905E0786800F026F98F
:1022AC00786800F035F97B6800221A777B681B6828
:1022BC001B6903F00103012B0ED17B681B68DB68E3
:1022CC0003F00103012B07D17B681B686FF001023F
:1022DC001A617868FEF7FCFD7B681B681B6903F0CC
:1022EC008003802B0ED17B681B68DB6803F08003B6
:1022FC00802B07D17B681B686FF080021A617868AD
:10230C0000F067FA7B681B681B6903F04003402BE5
:10231C000ED17B681B68DB6803F04003402B07D1B0
:10232C007B681B686FF040021A61786800F0F9F85E
:10233C007B681B681B6903F02003202B0ED17B6884
:10234C001B68DB6803F02003202B07D17B681B681C
:10235C006FF020021A61786800F032FA00BF08377B
:10236C00BD4680BD80B584B000AF786039607B68B5
:10237C0093F83C30012B01D10223B3E07B6801229E
:10238C0083F83C207B68022283F83D207B681B6825
:10239C009B68FB60FB6823F07703FB60FB6823F40E
:1023AC007F43FB607B681B68FA689A603B681B681C
:1023BC00B3F5005F3ED0B3F5005F00F28780B3F554
:1023CC00805F00F08580B3F5805F7FD8702B1AD0CA
:1023DC00702B7BD8602B50D0602B77D8502B3CD0F7
:1023EC00502B73D8402B58D0402B6FD8302B64D047
:1023FC00302B6BD8202B60D0202B67D8002B5CD0D7
:10240C00102B5AD062E07B6818683B6899683B686F
:10241C005A683B68DB6800F05CF97B681B689B685A
:10242C00FB60FB6843F07703FB607B681B68FA6812
:10243C009A604EE07B6818683B6899683B685A68FC
:10244C003B68DB6800F045F97B681B689A687B6821
:10245C001B6842F480429A603BE07B6818683B68DA
:10246C0059683B68DB681A4600F0BCF87B681B684F
:10247C005021184600F013F92BE07B6818683B6874
:10248C0059683B68DB681A4600F0DAF87B681B6811
:10249C006021184600F003F91BE07B6818683B6864
:1024AC0059683B68DB681A4600F09CF87B681B682F
:1024BC004021184600F0F3F80BE07B681A683B6883
:1024CC001B681946104600F0EAF802E000BF00E075
:1024DC0000BF7B68012283F83D207B68002283F8D3
:1024EC003C20002318461037BD4680BD80B483B015
:1024FC0000AF786000BF0C37BD4680BC704780B41D
:10250C0083B000AF786000BF0C37BD4680BC70470D
:10251C0080B483B000AF786000BF0C37BD4680BC80
:10252C00704780B483B000AF786000BF0C37BD46F5
:10253C0080BC704780B485B000AF786039607B6830
:10254C001B68FB607B68254A934207D07B68B3F11C
:10255C00804F03D07B68224A934208D1FB6823F05A
:10256C007003FB603B685B68FA681343FB607B6835
:10257C001A4A934207D07B68B3F1804F03D07B6833
:10258C00174A934208D1FB6823F44073FB603B6805
:10259C00DB68FA681343FB60FB6823F080023B683E
:1025AC005B691343FB607B68FA681A603B689A6846
:1025BC007B68DA623B681A687B689A627B68074AB8
:1025CC00934203D13B681A697B681A637B680122CA
:1025DC005A6100BF1437BD4680BC7047002C0140C7
:1025EC000004004080B487B000AFF860B9607A6036
:1025FC00FB681B6A7B61FB681B6A23F00102FB68AA
:10260C001A62FB689B693B613B6923F0F0033B61F9
:10261C007B681B013A6913433B617B6923F00A0316
:10262C007B617A69BB6813437B61FB683A699A6189
:10263C00FB687A691A6200BF1C37BD4680BC7047C4
:10264C0080B487B000AFF860B9607A60FB681B6A31
:10265C0023F01002FB681A62FB689B697B61FB68C4
:10266C001B6A3B617B6923F470437B617B681B03B2
:10267C007A6913437B613B6923F0A0033B61BB6820
:10268C001B013A6913433B61FB687A699A61FB68E9
:10269C003A691A6200BF1C37BD4680BC704780B4D3
:1026AC0085B000AF786039607B689B68FB60FB6825
:1026BC0023F07003FB603A68FB68134343F0070395
:1026CC00FB607B68FA689A6000BF1437BD4680BC1B
:1026DC00704780B487B000AFF860B9607A603B6037
:1026EC00FB689B687B617B6923F47F437B613B6860
:1026FC001A027B681A43BB6813437A6913437B61E4
:10270C00FB687A699A6000BF1C37BD4680BC704775
:10271C0080B485B000AF786039607B6893F83C304A
:10272C00012B01D1022341E07B68012283F83C207C
:10273C007B68022283F83D207B681B685B68FB602A
:10274C007B681B689B68BB60FB6823F07003FB60B5
:10275C003B681B68FA681343FB607B681B68FA686C
:10276C005A607B681B68144A934209D07B681B68CB
:10277C00B3F1804F04D07B681B68104A93420CD194
:10278C00BB6823F08003BB603B685B68BA6813438B
:10279C00BB607B681B68BA689A607B68012283F80F
:1027AC003D207B68002283F83C2000231846143718
:1027BC00BD4680BC704700BF002C014000040040A7
:1027CC0080B483B000AF786000BF0C37BD4680BCCE
:1027DC00704780B483B000AF786000BF0C37BD4643
:1027EC0080BC704770B500260C4D0D4C641BA410BA
:1027FC00A64209D100F022F800260A4D0A4C641BAF
:10280C00A410A64205D170BD55F8043B984701367B
:10281C00EEE755F8043B98470136F2E780280008AC
:10282C0080280008802800088428000803460244F9
:10283C00934200D1704703F8011BF9E7F8B500BFCC
:10284C00F8BC08BC9E467047F8B500BFF8BC08BC85
:04285C009E467047DD
:1028600002030405060708090A0B0C0D0E0F1010D1
:102870000000000000000000010203040607080930
:04288000310100081A
:042884000D0100083A
:10288800225B6001225B60016400000032000000EE
:10289800050000003C000000060000001E000000CB
:0C28A8000024F4001000000001000000FB
:04000005080011D905
:00000001FF
