:020000040800F2
:100000000028002079120008191000081F100008AD
:10001000251000082B100008311000080000000017
:100020000000000000000000000000003710000881
:1000300043100008000000004F1000085B1000088B
:10004000C1120008C1120008C1120008C112000844
:10005000C1120008C1120008C1120008C112000834
:10006000C1120008C1120008C1120008C112000824
:10007000C1120008C1120008C1120008C112000814
:10008000C1120008C1120008C1120008C112000804
:10009000C1120008C1120008C1120008C1120008F4
:1000A000C1120008C1120008C1120008C1120008E4
:1000B00069100008C112000800000000C112000809
:1000C000C11200080000000000000000C11200087A
:1000D00000000000C1120008C1120008000000006A
:1000E000C1120008C1120008C1120008000000007F
:1000F0000000000000000000000000000000000000
:0C01000000000000000000005FF808F1A3
:10010C0010B5054C237833B9044B13B10448AFF345
:10011C0000800123237010BD2C0000200000000083
:10012C00E828000808B5034B1BB103490348AFF39B
:10013C00008008BD0000000030000020E828000806
:10014C0080B582B000AF78607B68092B00F28081AB
:10015C0001A252F823F000BF8D010008D501000860
:10016C001D02000865020008AD020008F502000837
:10017C003D03000885030008CD03000815040008A2
:10018C0000220121B44801F098FB00220221B24860
:10019C0001F093FB00220421AF4801F08EFB0022FA
:1001AC000821AD4801F089FB00221021AA4801F07A
:1001BC0084FB00222021A84801F07FFB0122402172
:1001CC00A54801F07AFB43E101220121A24801F08C
:1001DC0074FB00220221A04801F06FFB00220421D5
:1001EC009D4801F06AFB012208219B4801F065FB48
:1001FC0001221021984801F060FB01222021964831
:10020C0001F05BFB01224021934801F056FB1FE1FA
:10021C0000220121904801F050FB002202218E485F
:10022C0001F04BFB012204218B4801F046FB00221C
:10023C000821894801F041FB00221021864801F079
:10024C003CFB01222021844801F037FB0022402195
:10025C00814801F032FBFBE0002201217E4801F0D5
:10026C002CFB002202217C4801F027FB00220421F8
:10027C00794801F022FB00220821774801F01DFB90
:10028C0001221021744801F018FB01222021724830
:10029C0001F013FB002240216F4801F00EFBD7E068
:1002AC00012201216C4801F008FB002202216A485E
:1002BC0001F003FB00220421674801F0FEFA012241
:1002CC000821654801F0F9FA01221021624801F079
:1002DC00F4FA00222021604801F0EFFA00224021BC
:1002EC005D4801F0EAFAB3E0002201215A4801F01E
:1002FC00E4FA01220221584801F0DFFA002204211D
:10030C00554801F0DAFA00220821534801F0D5FAD9
:10031C0001221021504801F0D0FA002220214E4831
:10032C0001F0CBFA002240214B4801F0C6FA8FE0D5
:10033C0000220121484801F0C0FA0122022146485E
:10034C0001F0BBFA00220421434801F0B6FA002266
:10035C000821414801F0B1FA002210213E4801F079
:10036C00ACFA002220213C4801F0A7FA00224021DF
:10037C00394801F0A2FA6BE000220121364801F065
:10038C009CFA00220221344801F097FA0022042141
:10039C00314801F092FA012208212F4801F08DFA20
:1003AC00012210212C4801F088FA012220212A4830
:1003BC0001F083FA01224021274801F07EFA47E040
:1003CC0000220121244801F078FA0022022122485F
:1003DC0001F073FA002204211F4801F06EFA00228A
:1003EC0008211D4801F069FA002210211A4801F079
:1003FC0064FA00222021184801F05FFA0022402103
:10040C00154801F05AFA23E001221021124801F09C
:10041C0054FA00220121104801F04FFA0022022167
:10042C000D4801F04AFA002204210B4801F045FA6C
:10043C0000220821084801F040FA00222021064839
:10044C0001F03BFA00224021034801F036FA00BFCC
:10045C0000BF0837BD4680BD000C014080B582B09E
:10046C0000AF7860554B1B68032B00F28B8001A208
:10047C0052F823F091040008CF0400080D05000881
:10048C004B0500084D4B1B684D4A52F8233018465B
:10049C00FFF756FE002240214A4801F00EFA0122D5
:1004AC008021484801F009FA01224FF48071454837
:1004BC0001F003FA01224FF40071424801F0FDF9FA
:1004CC0077E03E4B1B683E4A52F823301846FFF744
:1004DC0037FE012240213B4801F0EFF90022802138
:1004EC00384801F0EAF901224FF48071354801F0E7
:1004FC00E4F901224FF40071324801F0DEF958E0C2
:10050C002E4B1B682E4A52F823301846FFF718FE64
:10051C00012240212B4801F0D0F9012280212948E9
:10052C0001F0CBF900224FF48071264801F0C5F997
:10053C0001224FF40071234801F0BFF939E01F4B41
:10054C001B681F4A52F823301846FFF7F9FD0122A9
:10055C0040211C4801F0B1F901228021194801F019
:10056C00ACF901224FF48071164801F0A6F9002273
:10057C004FF40071134801F0A0F9104B4FF0FF320B
:10058C001A6016E0012240210E4801F096F9012272
:10059C0080210C4801F091F901224FF48071094837
:1005AC0001F08BF901224FF40071064801F085F936
:1005BC0000BF00BF0837BD4680BD00BF60000020F3
:1005CC00980000200008014080B500AF01220121F5
:1005DC00074801F072F900220221054801F06DF97B
:1005EC0000220421024801F068F900BF80BD00BF61
:1005FC000008014080B500AF00220121074801F03E
:10060C005CF901220221054801F057F9002204216E
:10061C00024801F052F900BF80BD00BF0008014044
:10062C0080B500AF00220121074801F046F90022F5
:10063C000221054801F041F901220421024801F090
:10064C003CF900BF80BD00BF0008014080B500AF81
:10065C00364B1B68364A93420BD0354A93425CDCCE
:10066C00032B41D0032B58DC012B0BD0022B22D0B7
:10067C0053E02E4B01221A602E4B1B68184600F0DB
:10068C0011FD51E0FFF7A0FF2B4B1B68012B46D14E
:10069C00264B02221A60294B1B68184600F002FDFB
:1006AC00264B1B68264A82FB03125211DB17D31A06
:1006BC00244A136033E0FFF79DFF1F4B1B68012B8F
:1006CC002FD11A4B03221A601F4B1B68184600F0DF
:1006DC00E9FC1D4B1B681A4A82FB03125211DB17F3
:1006EC00D31A184A13601CE0FFF79AFF124B1B68D1
:1006FC00012B18D10D4B01221A600E4B1B681846AA
:10070C0000F0D0FC0B4B1B680D4A82FB03125211FC
:10071C00DB17D31A0B4A136005E000BF04E000BFDF
:10072C0002E000BF00E000BF00BF80BD0000002061
:10073C00225B60010C0000206C00002014000020E3
:10074C001F85EB51100000201C00002080B500AF6D
:10075C0001220821074801F0B0F8002210210548B9
:10076C0001F0ABF800222021024801F0A6F800BFEE
:10077C0080BD00BF0008014080B500AF00220821F9
:10078C00074801F09AF801221021054801F095F86C
:10079C0000222021024801F090F800BF80BD00BF6C
:1007AC000008014080B500AF00220821074801F085
:1007BC0084F800221021054801F07FF80122202145
:1007CC00024801F07AF800BF80BD00BF000801406C
:1007DC0080B500AF364B1B68364A93420BD0354A76
:1007EC0093425CDC032B41D0032B58DC012B0BD048
:1007FC00022B22D053E02E4B02221A602E4B1B6888
:10080C00184600F063FC51E0FFF7A0FF2B4B1B6870
:10081C00012B46D1264B02221A60274B1B68184627
:10082C0000F054FC244B1B68254A82FB0312521126
:10083C00DB17D31A234A136033E0FFF79DFF1F4BDE
:10084C001B68012B2FD11A4B03221A601E4B1B68FD
:10085C00184600F03BFC1C4B1B68194A82FB031228
:10086C005211DB17D31A174A13601CE0FFF79AFFDB
:10087C00124B1B68012B18D10D4B01221A60134B24
:10088C001B68184600F022FC104B1B680C4A82FBBC
:10089C0003125211DB17D31A0A4A136005E000BF8A
:1008AC0004E000BF02E000BF00E000BF00BF80BD5D
:1008BC0004000020225B6001140000207400002062
:1008CC001F85EB51180000201C0000200C0000209C
:1008DC0080B500AF964B1B68964A934241D0954A1F
:1008EC00934200F31A81642B0ED0642B00F3158114
:1008FC000D2B00F0D3800D2B00F30F810B2B3AD076
:10090C000C2B00F0828008E18B4B1B68012B0CD167
:10091C008A4B1B68013B894A1360894B1B68013B5E
:10092C00874A1360642000F0A9FB864B1B68012BDF
:10093C0040F0F580834B00221A60834B63221A60CF
:10094C00824B63221A607A4B0B221A60804B1B6815
:10095C00804A82FB03125211DB17D31A784A1360B8
:10096C00DDE0794B734A1A60784B724A1A60704B0F
:10097C0064221A60DAE0FFF727FEFFF7E7FE704B00
:10098C001B68632B02DD6E4B00221A606B4B01223D
:10099C001A606C4B1B68012B0FD16A4B00221A603A
:1009AC006D4B1B686B4A82FB03125211DB17D31A77
:1009BC00634A13605E4B0C221A60624B5B68012B1E
:1009CC0007D1604B00225A605D4B1B6801335C4AB7
:1009DC0013605C4B9B68012B07D15A4B00229A6029
:1009EC00574B1B68013B564A1360564BDB68012B77
:1009FC0040F09780534B0022DA60514B1B68642205
:100A0C0002FB03F3524A13608BE0FFF7F3FDFFF791
:100A1C00B3FE4B4B1B68632B02DD494B00221A6063
:100A2C00464B02221A60474B1B68012B0FD1454BDA
:100A3C0000221A60494B1B68464A82FB0312521172
:100A4C00DB17D31A3E4A1360394B0D221A603D4B0B
:100A5C005B68012B07D13B4B00225A60384B1B685B
:100A6C000133374A1360374B9B68012B07D1354B49
:100A7C0000229A60324B1B68013B314A1360314BA8
:100A8C00DB68012B4FD12F4B0022DA602C4B1B68FB
:100A9C00642202FB03F3314A136044E0FFF7C0FD0C
:100AAC00FFF780FE264B1B68632B02DD244B0022D4
:100ABC001A60224B03221A60224B1B68012B05D1B2
:100ACC00204B00221A601A4B1A4A1A601D4B5B68A5
:100ADC00012B07D11B4B00225A60194B1B680133A9
:100AEC00174A1360174B9B68012B07D1154B00223B
:100AFC009A60134B1B68013B114A1360114BDB6866
:100B0C00012B12D10F4B0022DA600D4B1B686422B3
:100B1C0002FB03F3114A136007E000BF06E000BFBD
:100B2C0004E000BF02E000BF00E000BF00BF80BDDA
:100B3C0008000020225B60016400002010000020EF
:100B4C001800002084000020000000200400002079
:100B5C000C0000201F85EB51140000201C0000200D
:100B6C0080B483B000AF0346FB71FB79044A0121CA
:100B7C0042F8231000BF0C37BD4680BC704700BF45
:100B8C008400002090B583B000AF0023FB7197E088
:100B9C00FA79FB794F49895C4F4AD154FA79FB7940
:100BAC004E49895C4B4AD154FB79032B36D801A2B0
:100BBC0052F823F0D10B0008E70B0008FD0B0008DE
:100BCC00130C0008FC794FF48051454800F05EFE90
:100BDC0003461A46414B1A5525E0FC794FF4005157
:100BEC003F4800F053FE03461A463C4B1A551AE098
:100BFC00FC794FF480413A4800F048FE03461A460F
:100C0C00364B1A550FE0FC794FF40041344800F094
:100C1C003DFE03461A46314B1A5504E0FB792F4A28
:100C2C000121D15400BFFB792B4AD25CFB792949B5
:100C3C00CB5C9A4241D1FB79264AD25CFB7927499D
:100C4C00CB5C9A4239D1FB79264AD25CFB79234999
:100C5C00CB5C9A4214D0FA79FB792049895C214A01
:100C6C00D154FB791F4AD35C002B26D1FB791E4A49
:100C7C00642122F81310FB791846FFF771FF1CE072
:100C8C00FB79194A32F81320013A91B2164A22F82C
:100C9C001310FB79144A32F81330002B0DD1FB7969
:100CAC00104AD35C002B08D1FB790F4A642122F83F
:100CBC001310FB791846FFF753FFFB790133FB71D7
:100CCC00FB79032B7FF664AF00BF00BF0C37BD462A
:100CDC0090BD00BF500000204C00002054000020AC
:100CEC0000080140480000205800002080B500AFEB
:100CFC0000F0E2FA00F02EF800F068F800F0B2F81C
:100D0C00114801F02BFA012000F0B8F9022000F094
:100D1C00F1F9FFF79BFCFFF75BFDFFF7D9FD0B4BE0
:100D2C001B68012BF5D1094B00221A6000F05EFA0A
:100D3C00074B1B685A1C06490A601846FFF78EFBC6
:100D4C00052000F0D7F9E4E7A80000207C00002083
:100D5C006000002080B590B000AF07F11803282286
:100D6C000021184601F0B2FD3B1D00221A605A60AA
:100D7C009A60DA601A610223BB610123BB62102303
:100D8C00FB6200237B6307F11803184600F0AEFDED
:100D9C000346002B01D000F0DEF80F237B6000230C
:100DAC00BB600023FB6000233B6100237B613B1D88
:100DBC000021184601F01AF80346002B01D000F070
:100DCC00CAF800BF4037BD4680BD000080B586B074
:100DDC0000AF07F1080300221A605A609A60DA60CB
:100DEC003B4600221A605A601D4B4FF080421A603D
:100DFC001B4B41F63F725A60194B00229A60184BFC
:100E0C000922DA60164B00221A61154B80229A6176
:100E1C00134801F053F90346002B01D000F09BF866
:100E2C004FF48053BB6007F1080319460C4801F0DE
:100E3C00E9FA0346002B01D000F08DF800233B604B
:100E4C0000237B603B461946054801F0B1FC034684
:100E5C00002B01D000F07FF800BF1837BD4680BDD5
:100E6C00A800002080B586B000AF07F1080300226F
:100E7C001A605A609A60DA60284B9B69274A43F0E3
:100E8C0004039361254B9B6903F004037B607B682F
:100E9C00224B9B69214A43F0080393611F4B9B69CA
:100EAC0003F008033B603B68002240F2FF311C4812
:100EBC0000F003FD00227F211A4800F0FEFC40F2F6
:100ECC00FF33BB600123FB6000233B6102237B618A
:100EDC0007F108031946124800F05EFB7F23BB6044
:100EEC000123FB6000233B6102237B6107F10803B4
:100EFC0019460C4800F050FB4FF47043BB600023C4
:100F0C00FB6001233B6107F108031946044800F01C
:100F1C0043FB00BF1837BD4680BD00BF0010024028
:100F2C0000080140000C014080B582B000AF786031
:100F3C007B681B68B3F1804F09D100F0EFF800F02B
:100F4C0007F900F01FF900F037F9FFF71BFE00BF9F
:100F5C000837BD4680BD80B400AF72B600BFFEE757
:100F6C0080B485B000AF154B9B69144A43F0010364
:100F7C009361124B9B6903F00103BB60BB680F4B81
:100F8C00DB690E4A43F08053D3610C4BDB6903F0F1
:100F9C0080537B607B680A4B5B68FB60FB6823F0CB
:100FAC00E063FB60FB6843F08063FB60044AFB6812
:100FBC00536000BF1437BD4680BC70470010024020
:100FCC000000014080B584B000AF78607B681B687E
:100FDC00B3F1804F13D10C4BDB690B4A43F0010387
:100FEC00D361094BDB6903F00103FB60FB68002252
:100FFC0000211C2000F099FA1C2000F0B2FA00BF6E
:10100C001037BD4680BD00BF0010024080B400AF59
:10101C00FEE780B400AFFEE780B400AFFEE780B41B
:10102C0000AFFEE780B400AFFEE780B400AF00BFB6
:10103C00BD4680BC704780B400AF00BFBD4680BCCD
:10104C00704780B400AF00BFBD4680BC704780B510
:10105C0000AF00F077F900BF80BD000080B500AF95
:10106C00024801F0C7F800BF80BD00BFA8000020F7
:10107C0080B400AF00BFBD4680BC704780B483B065
:10108C0000AF7860054A7B681360054B00221A603C
:10109C0000BF0C37BD4680BC704700BF6800002005
:1010AC006400002080B483B000AF7860054A7B6890
:1010BC001360054B00221A6000BF0C37BD4680BC84
:1010CC00704700BF700000206C00002080B483B01B
:1010DC0000AF7860054A7B681360054B00221A60EC
:1010EC0000BF0C37BD4680BC704700BF78000020A5
:1010FC007400002080B483B000AF7860054A7B6830
:10110C001360054B00221A6000BF0C37BD4680BC33
:10111C00704700BF800000207C00002080B400AF2E
:10112C00094B1B68002B0BDD074B1B68013B064A68
:10113C001360054B1B68002B02DC044B01221A6068
:10114C0000BFBD4680BC70476800002064000020D2
:10115C0080B400AF094B1B68002B0BDD074B1B68E1
:10116C00013B064A1360054B1B68002B02DC044B49
:10117C0001221A6000BFBD4680BC70477000002081
:10118C006C00002080B400AF094B1B68002B0BDDFA
:10119C00074B1B68013B064A1360054B1B68002B71
:1011AC0002DC044B01221A6000BFBD4680BC7047B4
:1011BC00780000207400002080B400AF094B1B683D
:1011CC00002B0BDD074B1B68013B064A1360054BDC
:1011DC001B68002B02DC044B01221A6000BFBD46C9
:1011EC0080BC7047800000207C00002080B400AFE1
:1011FC001A4B1B681A4A82FB03129210DB17D31A84
:10120C00184A1360154B1968154B83FB01239A1070
:10121C00CB17D21A13469B0013445B00CA1A114B0E
:10122C005A60114B1B680E4A82FB03129210DB179B
:10123C00D31A0C4A93600C4B1968094B83FB01239E
:10124C009A10CB17D21A13469B0013445B00CA1A90
:10125C00044BDA6000BFBD4680BC70471000002014
:10126C006766666698000020180000200C480D493F
:10127C000D4A002302E0D458C4500433C4188C42E5
:10128C00F9D30A4A0A4C002301E013600432A2424B
:10129C00FBD3FFF7EDFE01F0F5FAFFF727FD7047E2
:1012AC00000000202C000020282900082C00002021
:1012BC00F8000020FEE7000080B500AF084B1B686B
:1012CC00074A43F010031360032000F023F90F20AA
:1012DC0000F008F8FFF744FE0023184680BD00BF5D
:1012EC000020024080B582B000AF7860124B1A68C3
:1012FC00124B1B7819464FF47A73B3FBF1F3B2FB24
:10130C00F3F3184600F03BF90346002B01D0012300
:10131C000EE07B680F2B0AD8002279684FF0FF3063
:10132C0000F003F9064A7B681360002300E00123F8
:10133C0018460837BD4680BD20000020280000203C
:10134C002400002080B400AF054B1B781A46054BD7
:10135C001B681344034A136000BFBD4680BC704732
:10136C0028000020F400002080B400AF024B1B6862
:10137C001846BD4680BC7047F400002080B485B090
:10138C0000AF78607B6803F00703FB600C4BDB68F5
:10139C00BB60BA684FF6FF031340BB60FB681A02D0
:1013AC00BB68134343F0BF6343F40033BB60044A90
:1013BC00BB68D36000BF1437BD4680BC704700BF0C
:1013CC0000ED00E080B400AF044BDB681B0A03F0B7
:1013DC0007031846BD4680BC704700BF00ED00E017
:1013EC0080B483B000AF0346FB7197F90730002B34
:1013FC000BDBFB7903F01F02064997F907305B09F9
:10140C00012000FA02F241F8232000BF0C37BD4640
:10141C0080BC704700E100E080B483B000AF0346AD
:10142C003960FB7197F90730002B0ADB3B68DAB2A5
:10143C000C4997F907301201D2B20B4483F8002300
:10144C000AE03B68DAB20849FB7903F00F03043B6E
:10145C001201D2B20B441A7600BF0C37BD4680BCC9
:10146C00704700BF00E100E000ED00E080B489B0FF
:10147C0000AFF860B9607A60FB6803F00703FB61AA
:10148C00FB69C3F10703042B28BF0423BB61FB6971
:10149C000433062B02D9FB69033B00E000237B617C
:1014AC004FF0FF32BB6902FA03F3DA43BB681A4010
:1014BC007B699A404FF0FF317B6901FA03F3D94302
:1014CC007B680B40134318462437BD4680BC7047DD
:1014DC0080B582B000AF78607B68013BB3F1807F50
:1014EC0001D301230FE00A4A7B68013B53600F21B3
:1014FC004FF0FF30FFF790FF054B00229A60044B32
:10150C0007221A60002318460837BD4680BD00BF6D
:10151C0010E000E080B582B000AF78607868FFF72B
:10152C002DFF00BF0837BD4680BD80B586B000AF2B
:10153C000346B9607A60FB7300237B61FFF742FFBF
:10154C0078617A68B9687869FFF790FF024697F975
:10155C000F3011461846FFF75FFF00BF1837BD4626
:10156C0080BD80B582B000AF0346FB7197F90730A0
:10157C001846FFF735FF00BF0837BD4680BD80B564
:10158C0082B000AF78607868FFF7A2FF0346184678
:10159C000837BD4680BD000080B48BB000AF7860CA
:1015AC00396000237B6200233B6248E101227B6AA5
:1015BC0002FA03F3FB613B681B68FA691340BB61D9
:1015CC00BA69FB699A4240F037813B685B68A34A71
:1015DC0093425ED0A14A934275D8A14A934258D007
:1015EC009F4A93426FD89F4A934252D09D4A93424E
:1015FC0069D89D4A93424CD09B4A934263D89B4AEC
:10160C00934246D0994A93425DD8122B2AD8122B7A
:10161C0059D801A252F823F09F1600087916000839
:10162C008B160008CD160008D3160008D316000838
:10163C00D3160008D3160008D3160008D3160008DA
:10164C00D3160008D3160008D3160008D3160008CA
:10165C00D3160008D3160008D3160008811600080C
:10166C0095160008824A934213D02CE03B68DB6845
:10167C003B6229E03B68DB6804333B6224E03B6857
:10168C00DB6808333B621FE03B68DB680C333B6272
:10169C001AE03B689B68002B02D104233B6213E0E9
:1016AC003B689B68012B05D108233B627B68FA6978
:1016BC001A6109E008233B627B68FA695A6103E00E
:1016CC0000233B6200E000BFBB69FF2B01D87B68A5
:1016DC0001E07B6804337B61BB69FF2B02D87B6A1A
:1016EC009B0002E07B6A083B9B003B617B691A68AC
:1016FC000F213B6901FA03F3DB431A40396A3B695A
:10170C0001FA03F31A437B691A603B685B6803F0C8
:10171C008053002B00F09080564B9B69554A43F048
:10172C0001039361534B9B6903F00103BB60BB68DE
:10173C00514A7B6A9B08023352F82330FB607B6A68
:10174C0003F003039B000F2202FA03F3DB43FA6856
:10175C001340FB607B68494A93420DD07B68484A32
:10176C00934207D07B68474A934201D1022304E09D
:10177C00032302E0012300E000237A6A02F0030253
:10178C0092009340FA681343FB603B497B6A9B08C9
:10179C000233FA6841F823203B685B6803F480331A
:1017AC00002B06D0384B1A683749BB6913430B60C2
:1017BC0006E0354B1A68BB69DB43334913400B60B9
:1017CC003B685B6803F40033002B06D02E4B5A6841
:1017DC002D49BB6913434B6006E02B4B5A68BB6920
:1017EC00DB43294913404B603B685B6803F480136F
:1017FC00002B06D0244B9A682349BB6913438B609A
:10180C0006E0214B9A68BB69DB431F4913408B6090
:10181C003B685B6803F40013002B06D01A4BDA68A4
:10182C001949BB691343CB6006E0174BDA68BB69F7
:10183C00DB4315491340CB607B6A01337B623B6809
:10184C001A687B6A22FA03F3002B7FF4AFAE00BF59
:10185C0000BF2C37BD4680BC704700BF0000321063
:10186C0000003110000022100000211000001210A6
:10187C00000011100010024000000140000801405F
:10188C00000C0140001001400004014080B485B000
:10189C0000AF78600B467B807B689A687B8813402E
:1018AC00002B02D00123FB7301E00023FB73FB7BB5
:1018BC0018461437BD4680BC704780B483B000AF67
:1018CC0078600B467B8013467B707B78002B03D0B3
:1018DC007A887B681A6103E07B881A047B681A613A
:1018EC0000BF0C37BD4680BC7047000080B586B089
:1018FC0000AF78607B68002B01D101236CE27B6820
:10190C001B6803F00103002B00F08780924B5B688F
:10191C0003F00C03042B0CD08F4B5B6803F00C030F
:10192C00082B12D18C4B5B6803F48033B3F5803FEA
:10193C000BD1894B1B6803F40033002B6CD07B68F4
:10194C005B68002B68D1012346E27B685B68B3F5CA
:10195C00803F06D1804B1B687F4A43F48033136071
:10196C002EE07B685B68002B0CD17B4B1B687A4AA2
:10197C0023F480331360784B1B68774A23F480235D
:10198C0013601DE07B685B68B3F5A02F0CD1724B24
:10199C001B68714A43F4802313606F4B1B686E4ABB
:1019AC0043F4803313600BE06B4B1B686A4A23F4DF
:1019BC0080331360684B1B68674A23F480231360E1
:1019CC007B685B68002B13D0FFF7CEFC386108E016
:1019DC00FFF7CAFC02463B69D31A642B01D90323D7
:1019EC00FAE15D4B1B6803F40033002BF0D014E0DC
:1019FC00FFF7BAFC386108E0FFF7B6FC02463B691A
:101A0C00D31A642B01D90323E6E1534B1B6803F46F
:101A1C000033002BF0D100E000BF7B681B6803F0A3
:101A2C000203002B63D04C4B5B6803F00C03002BC0
:101A3C000BD0494B5B6803F00C03082B1CD1464BB5
:101A4C005B6803F48033002B16D1434B1B6803F007
:101A5C000203002B05D07B681B69012B01D00123ED
:101A6C00BAE13D4B1B6823F0F8027B685B69DB0035
:101A7C00394913430B603AE07B681B69002B20D07B
:101A8C00364B01221A60FFF76FFC386108E0FFF754
:101A9C006BFC02463B69D31A022B01D903239BE151
:101AAC002D4B1B6803F00203002BF0D02A4B1B6854
:101ABC0023F0F8027B685B69DB00274913430B605A
:101ACC0015E0264B00221A60FFF74EFC386108E047
:101ADC00FFF74AFC02463B69D31A022B01D90323B8
:101AEC007AE11D4B1B6803F00203002BF0D17B68DD
:101AFC001B6803F00803002B3AD07B689B69002B12
:101B0C0019D0174B01221A60FFF72EFC386108E040
:101B1C00FFF72AFC02463B69D31A022B01D9032397
:101B2C005AE10D4B5B6A03F00203002BF0D001204D
:101B3C0000F0A6FA1CE00A4B00221A60FFF714FC16
:101B4C0038610FE0FFF710FC02463B69D31A022BF9
:101B5C0008D9032340E100BF0010024000004242BC
:101B6C00800442429E4B5B6A03F00203002BE9D1D6
:101B7C007B681B6803F00403002B00F0A680002395
:101B8C00FB75974BDB6903F08053002B0DD1944B05
:101B9C00DB69934A43F08053D361914BDB6903F0CB
:101BAC008053BB60BB680123FB758E4B1B6803F431
:101BBC008073002B18D18B4B1B688A4A43F48073BB
:101BCC001360FFF7D1FB386108E0FFF7CDFB02464D
:101BDC003B69D31A642B01D90323FDE0814B1B68AD
:101BEC0003F48073002BF0D07B68DB68012B06D1EB
:101BFC007B4B1B6A7A4A43F0010313622DE07B682E
:101C0C00DB68002B0CD1764B1B6A754A23F0010361
:101C1C001362734B1B6A724A23F0040313621CE0B9
:101C2C007B68DB68052B0CD16D4B1B6A6C4A43F04F
:101C3C00040313626A4B1B6A694A43F00103136283
:101C4C000BE0674B1B6A664A23F001031362644B7B
:101C5C001B6A634A23F0040313627B68DB68002B66
:101C6C0015D0FFF781FB38610AE0FFF77DFB0246D8
:101C7C003B69D31A41F28832934201D90323ABE07A
:101C8C00574B1B6A03F00203002BEED014E0FFF756
:101C9C006BFB38610AE0FFF767FB02463B69D31A1E
:101CAC0041F28832934201D9032395E04C4B1B6AD5
:101CBC0003F00203002BEED1FB7D012B05D1484B29
:101CCC00DB69474A23F08053D3617B68DB69002BC7
:101CDC0000F08180424B5B6803F00C03082B61D051
:101CEC007B68DB69022B46D13F4B00221A60FFF761
:101CFC003BFB386108E0FFF737FB02463B69D31A20
:101D0C00022B01D9032367E0354B1B6803F00073EA
:101D1C00002BF0D17B681B6AB3F5803F08D1304BA8
:101D2C005B6823F400327B689B682D4913434B603E
:101D3C002B4B5B6823F474127B68196A7B685B6AB3
:101D4C000B43274913434B60274B01221A60FFF7C3
:101D5C000BFB386108E0FFF707FB02463B69D31A1F
:101D6C00022B01D9032337E01D4B1B6803F00073D2
:101D7C00002BF0D02FE01C4B00221A60FFF7F4FA76
:101D8C00386108E0FFF7F0FA02463B69D31A022BE0
:101D9C0001D9032320E0124B1B6803F00073002BC6
:101DAC00F0D118E07B68DB69012B01D1012313E032
:101DBC000B4B5B68FB60FB6803F480327B681B6A2F
:101DCC009A4206D1FB6803F470127B685B6A9A42F4
:101DDC0001D0012300E0002318461837BD4680BD12
:101DEC0000100240007000406000424280B584B098
:101DFC0000AF786039607B68002B01D10123D0E003
:101E0C006A4B1B6803F007033A689A4210D9674B78
:101E1C001B6823F0070265493B6813430B60634B57
:101E2C001B6803F007033A689A4201D00123B8E01B
:101E3C007B681B6803F00203002B20D07B681B68B7
:101E4C0003F00403002B05D0594B5B68584A43F44C
:101E5C00E06353607B681B6803F00803002B05D01C
:101E6C00534B5B68524A43F460535360504B5B686E
:101E7C0023F0F0027B689B684D4913434B607B68F1
:101E8C001B6803F00103002B40D07B685B68012BBF
:101E9C0007D1474B1B6803F40033002B15D10123EA
:101EAC007FE07B685B68022B07D1414B1B6803F01A
:101EBC000073002B09D1012373E03D4B1B6803F029
:101ECC000203002B01D101236BE0394B5B6823F03B
:101EDC0003027B685B68364913434B60FFF744FA97
:101EEC00F8600AE0FFF740FA0246FB68D31A41F2A9
:101EFC008832934201D9032353E02D4B5B6803F0E6
:101F0C000C027B685B689B009A42EBD1274B1B68E9
:101F1C0003F007033A689A4210D2244B1B6823F053
:101F2C00070222493B6813430B60204B1B6803F0EC
:101F3C0007033A689A4201D0012332E07B681B68A0
:101F4C0003F00403002B08D0194B5B6823F4E06208
:101F5C007B68DB68164913434B607B681B6803F096
:101F6C000803002B09D0124B5B6823F460527B688A
:101F7C001B69DB000E4913434B6000F021F802464D
:101F8C000B4B5B681B0903F00F030A49CB5C22FA6D
:101F9C0003F3094A1360094B1B681846FFF7A2F9B3
:101FAC00002318461037BD4680BD00BF00200240FC
:101FBC0000100240102900082000002024000020FE
:101FCC0090B48AB000AF2A4B3C1D0FCB84E80F00B5
:101FDC0040F201233B800023FB610023BB61002303
:101FEC007B6200237B6100233B62224B5B68FB61BD
:101FFC00FB6903F00C03042B02D0082B03D02DE05B
:10200C001D4B3B622DE0FB699B0C03F00F0307F1AA
:10201C002802134413F8243C7B61FB6903F48033DE
:10202C00002B13D0134B5B685B0C03F0010307F11F
:10203C002802134413F8283CBB617B690E4A02FB4F
:10204C0003F2BB69B2FBF3F37B6204E07B690B4ADE
:10205C0002FB03F37B627B6A3B6202E0064B3B6252
:10206C0000BF3B6A18462837BD4690BC704700BF7E
:10207C00002900080010024000127A0000093D00FF
:10208C0080B485B000AF78600A4B1B680A4AA2FB8B
:10209C0003235B0A7A6802FB03F3FB6000BFFB6857
:1020AC005A1EFA60002BF9D100BF00BF1437BD4691
:1020BC0080BC704720000020D34D621080B582B0E8
:1020CC0000AF78607B68002B01D1012341E07B6875
:1020DC0093F83D30DBB2002B06D17B68002283F8ED
:1020EC003C207868FEF76EFF7B68022283F83D2067
:1020FC007B681A687B6804331946104600F06AFA4C
:10210C007B68012283F846207B68012283F83E20FD
:10211C007B68012283F83F207B68012283F84020F2
:10212C007B68012283F841207B68012283F84220DE
:10213C007B68012283F843207B68012283F84420CA
:10214C007B68012283F845207B68012283F83D20BF
:10215C00002318460837BD4680BD000080B485B00A
:10216C0000AF78607B6893F83D30DBB2012B01D077
:10217C00012335E07B68022283F83D207B681B68D5
:10218C00DA687B681B6842F00102DA607B681B68C6
:10219C00164A934209D07B681B68B3F1804F04D078
:1021AC007B681B68124A934211D17B681B689B6841
:1021BC0003F00703FB60FB68062B10D07B681B68E1
:1021CC001A687B681B6842F001021A6007E07B68A2
:1021DC001B681A687B681B6842F001021A600023B6
:1021EC0018461437BD4680BC704700BF002C014018
:1021FC000004004080B582B000AF78607B681B683B
:10220C001B6903F00203022B22D17B681B68DB687D
:10221C0003F00203022B1BD17B681B686FF00202D8
:10222C001A617B6801221A777B681B689B6903F033
:10223C000303002B03D0786800F0B1F905E078684F
:10224C0000F0A4F9786800F0B3F97B6800221A77E3
:10225C007B681B681B6903F00403042B22D17B6889
:10226C001B68DB6803F00403042B1BD17B681B6821
:10227C006FF004021A617B6802221A777B681B6874
:10228C009B6903F44073002B03D0786800F087F946
:10229C0005E0786800F07AF9786800F089F97B68D5
:1022AC0000221A777B681B681B6903F00803082B54
:1022BC0022D17B681B68DB6803F00803082B1BD159
:1022CC007B681B686FF008021A617B6804221A771E
:1022DC007B681B68DB6903F00303002B03D0786871
:1022EC0000F05DF905E0786800F050F9786800F0CE
:1022FC005FF97B6800221A777B681B681B6903F007
:10230C001003102B22D17B681B68DB6803F01003D1
:10231C00102B1BD17B681B686FF010021A617B6855
:10232C0008221A777B681B68DB6903F44073002B67
:10233C0003D0786800F033F905E0786800F026F9EE
:10234C00786800F035F97B6800221A777B681B6887
:10235C001B6903F00103012B0ED17B681B68DB6842
:10236C0003F00103012B07D17B681B686FF001029E
:10237C001A617868FEF7D8FD7B681B681B6903F04F
:10238C008003802B0ED17B681B68DB6803F0800315
:10239C00802B07D17B681B686FF080021A6178680C
:1023AC0000F067FA7B681B681B6903F04003402B45
:1023BC000ED17B681B68DB6803F04003402B07D110
:1023CC007B681B686FF040021A61786800F0F9F8BE
:1023DC007B681B681B6903F02003202B0ED17B68E4
:1023EC001B68DB6803F02003202B07D17B681B687C
:1023FC006FF020021A61786800F032FA00BF0837DB
:10240C00BD4680BD80B584B000AF786039607B6814
:10241C0093F83C30012B01D10223B3E07B680122FD
:10242C0083F83C207B68022283F83D207B681B6884
:10243C009B68FB60FB6823F07703FB60FB6823F46D
:10244C007F43FB607B681B68FA689A603B681B687B
:10245C00B3F5005F3ED0B3F5005F00F28780B3F5B3
:10246C00805F00F08580B3F5805F7FD8702B1AD029
:10247C00702B7BD8602B50D0602B77D8502B3CD056
:10248C00502B73D8402B58D0402B6FD8302B64D0A6
:10249C00302B6BD8202B60D0202B67D8002B5CD036
:1024AC00102B5AD062E07B6818683B6899683B68CF
:1024BC005A683B68DB6800F05CF97B681B689B68BA
:1024CC00FB60FB6843F07703FB607B681B68FA6872
:1024DC009A604EE07B6818683B6899683B685A685C
:1024EC003B68DB6800F045F97B681B689A687B6881
:1024FC001B6842F480429A603BE07B6818683B683A
:10250C0059683B68DB681A4600F0BCF87B681B68AE
:10251C005021184600F013F92BE07B6818683B68D3
:10252C0059683B68DB681A4600F0DAF87B681B6870
:10253C006021184600F003F91BE07B6818683B68C3
:10254C0059683B68DB681A4600F09CF87B681B688E
:10255C004021184600F0F3F80BE07B681A683B68E2
:10256C001B681946104600F0EAF802E000BF00E0D4
:10257C0000BF7B68012283F83D207B68002283F832
:10258C003C20002318461037BD4680BD80B483B074
:10259C0000AF786000BF0C37BD4680BC704780B47C
:1025AC0083B000AF786000BF0C37BD4680BC70476D
:1025BC0080B483B000AF786000BF0C37BD4680BCE0
:1025CC00704780B483B000AF786000BF0C37BD4655
:1025DC0080BC704780B485B000AF786039607B6890
:1025EC001B68FB607B68254A934207D07B68B3F17C
:1025FC00804F03D07B68224A934208D1FB6823F0BA
:10260C007003FB603B685B68FA681343FB607B6894
:10261C001A4A934207D07B68B3F1804F03D07B6892
:10262C00174A934208D1FB6823F44073FB603B6864
:10263C00DB68FA681343FB60FB6823F080023B689D
:10264C005B691343FB607B68FA681A603B689A68A5
:10265C007B68DA623B681A687B689A627B68074A17
:10266C00934203D13B681A697B681A637B68012229
:10267C005A6100BF1437BD4680BC7047002C014026
:10268C000004004080B487B000AFF860B9607A6095
:10269C00FB681B6A7B61FB681B6A23F00102FB6809
:1026AC001A62FB689B693B613B6923F0F0033B6159
:1026BC007B681B013A6913433B617B6923F00A0376
:1026CC007B617A69BB6813437B61FB683A699A61E9
:1026DC00FB687A691A6200BF1C37BD4680BC704724
:1026EC0080B487B000AFF860B9607A60FB681B6A91
:1026FC0023F01002FB681A62FB689B697B61FB6824
:10270C001B6A3B617B6923F470437B617B681B0311
:10271C007A6913437B613B6923F0A0033B61BB687F
:10272C001B013A6913433B61FB687A699A61FB6848
:10273C003A691A6200BF1C37BD4680BC704780B432
:10274C0085B000AF786039607B689B68FB60FB6884
:10275C0023F07003FB603A68FB68134343F00703F4
:10276C00FB607B68FA689A6000BF1437BD4680BC7A
:10277C00704780B487B000AFF860B9607A603B6096
:10278C00FB689B687B617B6923F47F437B613B68BF
:10279C001A027B681A43BB6813437A6913437B6143
:1027AC00FB687A699A6000BF1C37BD4680BC7047D5
:1027BC0080B485B000AF786039607B6893F83C30AA
:1027CC00012B01D1022341E07B68012283F83C20DC
:1027DC007B68022283F83D207B681B685B68FB608A
:1027EC007B681B689B68BB60FB6823F07003FB6015
:1027FC003B681B68FA681343FB607B681B68FA68CC
:10280C005A607B681B68144A934209D07B681B682A
:10281C00B3F1804F04D07B681B68104A93420CD1F3
:10282C00BB6823F08003BB603B685B68BA681343EA
:10283C00BB607B681B68BA689A607B68012283F86E
:10284C003D207B68002283F83C2000231846143777
:10285C00BD4680BC704700BF002C01400004004006
:10286C0080B483B000AF786000BF0C37BD4680BC2D
:10287C00704780B483B000AF786000BF0C37BD46A2
:10288C0080BC704770B500260C4D0D4C641BA41019
:10289C00A64209D100F022F800260A4D0A4C641B0E
:1028AC00A410A64205D170BD55F8043B98470136DB
:1028BC00EEE755F8043B98470136F2E7202900086B
:1028CC002029000820290008242900080346024476
:1028DC00934200D1704703F8011BF9E7F8B500BF2C
:1028EC00F8BC08BC9E467047F8B500BFF8BC08BCE5
:0428FC009E4670473D
:1029000002030405060708090A0B0C0D0E0F101030
:10291000000000000000000001020304060708098F
:042920003101000879
:042924000D01000899
:10292800225B6001225B600164000000E803000094
:102938000A000000BC020000070000002C01000093
:0C2948000024F40010000000010000005A
:040000050800127964
:00000001FF
